:060000008031DF2B00003F
:0800080083018031200077081C
:10001000A0007808A1007908A2007A08A300850151
:1000200091308400801E1628911A1F282008F7009E
:100030002108F8002208F9002308FA00090080319D
:100040002128911E212823001D082000BC00230028
:100050001908F8002000BC1C312823001D121D16B1
:10006000200078082100B400200091128031162869
:1000700021000F1222000F1621008F1222008F166E
:1000800021000F1322000F1321008F1120008F1168
:10009000080021000F1122000F1521008F102200EF
:1000A0008F1021008E1020008E10080021000F12EA
:1000B00022000F1621008F1222008F1221000F1331
:1000C00022000F1721008F1120008F15080021003A
:1000D0000F1122000F1121008F1022008F14210018
:1000E0008E1020008E1408002100430DF700F70D3C
:1000F000FC30F7051D08833977049D000F30F800A8
:100100001F08F03978049F001A30F700F70B862893
:1001100000009D149D188A281B08C4001C08C500F7
:10012000450CFA00440CF900FA0CF90CFA0CF90C25
:10013000FA0CF90C7908C6004608F80020000800FF
:100140000D302100C300200074207808E1000A303F
:100150002100C300200074207808DE00F008031D91
:10016000BF286108B03C0318BD285E08933C031803
:10017000BD280F140130E200BF280F10E201080073
:100180008F1DC7288E18C7281030E300D6288F1D72
:10019000CE288E1CCE281130E300D6288F19D52802
:1001A0008E1CD5280130E300D628E3010800210089
:1001B0004608103C0319E128C800C40DC50DC80B42
:1001C000DD280E168E128E1122008E1521000E11C2
:1001D00022000E1121004608C800C51BF22822008B
:1001E0008E122100C51FF72822008E162100C40D93
:1001F000C50D22008E1144302100C900C90BFE2814
:10020000F80DF90D20000E1E78100E1A7814220039
:100210008E1543302100C900C90B0C29C80BED28ED
:1002200022000E152000080021003F08C5003E08EE
:10023000C4001030C6002000D7202100C5010130C5
:10024000C4001030C6002000D72079082100C1006A
:100250007808C000C20041080F39C3001A30F70007
:10026000F70B302900004208F8004308F90020008D
:10027000080083302100BF003030BE002000142170
:100280007908B1007808B00031082100BE00BF0134
:100290003E082000BE003008BF0087302100BF00AC
:1002A0003030BE00200014217908B5007808B40071
:1002B00035082100BE00BF013E082000C000340800
:1002C000C1008B302100BF003030BE00200014215F
:1002D0007908B9007808B80039082100BE00BF01CC
:1002E0003E082000C2003808C3008F302100BF0044
:1002F0003030BE00200014217908B3007808B20025
:1003000033082100BE00BF013E082000C4003208AF
:10031000C50097302100BF003030BE0020001421FE
:100320007908BB007808BA003B082100BE00BF0175
:100330003E082000C6003A08C7009F302100BF00D9
:100340003030BE00200014217908B7007808B600CC
:1003500037082100BE00BF013E082000C800360853
:10036000C90008000E1121003F08C5003E08C40066
:100370001030C6002000D7202100C5010130C40084
:100380001030C6002000D72079082100C10078086D
:10039000C000C20041080F39C30020000E151A30FA
:1003A000F700F70BD129000021004208F8004308AC
:1003B000F90020000800A3302100BF003030BE004B
:1003C0002000B2217908A7007808A600270821009C
:1003D000BE00BF013E082000CA002608CB00A7309F
:1003E0002100BF003030BE002000B2217908AB00F0
:1003F0007808AA002B082100BE00BF013E0820009B
:10040000CC002A08CD00AB302100BF003030BE0048
:100410002000B2217908AF007808AE002F08210033
:10042000BE00BF013E082000CE002E08CF00AF3036
:100430002100BF003030BE002000B2217908A900A1
:100440007808A80029082100BE00BF013E0820004E
:10045000D0002808D100B7302100BF003030BE00E6
:100460002000B2217908AD007808AC002D082100E9
:10047000BE00BF013E082000D2002C08D3000800B7
:10048000203085007330840000080319552A053098
:10049000F800F701F70B4A2AF80B492A2E30F7002B
:1004A000F70B502A532A800B472A08002100C3016A
:1004B000200074207808D40001302100C3002000FF
:1004C00074207808D50002302100C3002000742079
:1004D0007808D60003302100C3002000742078087B
:1004E000D70005302100C300200074207808D80010
:1004F00006302100C300200074207808D90008309D
:100500002100C300200074207808DA00093021009F
:10051000C300200074207808DB002100BE013E08E3
:10052000633C031CB12A2C30F8001D088339780481
:100530009D000F30F8001F08F03978049F000D303F
:10054000F700F70BA12A9D149D18A42A1B08AE07DB
:100550001C08AF3D0130C300200040222100BE0A2C
:100560008F2A2F08C4002E08C300C6016430C500BE
:10057000F801F901F701FA014608031DC22A4508EE
:100580000319DC2A1030C7000310C30DC40DF70D8A
:10059000FA0D46087A02031DCF2A45087702031C8C
:1005A000D82A4508F702031CFA034608FA02031486
:1005B000F80DF90DC70BC42A7908AF007808AE0012
:1005C000C4012F082000DC0021002E082000DD00DF
:1005D0002100AF01AE010A30C3002000742078086A
:1005E000DE002100BF013F08633C031C182B3030A4
:1005F000F8001D08833978049D000F30F8001F08AB
:10060000F03978049F000D30F700F70B052B9D148F
:100610009D18082B1B08B0071C08B13D0030B23DE7
:10062000B33D0130C300200040222100BF0AF32A5D
:1006300083103308C6003208C5003108C4003008F2
:10064000C300CA01C901C8016430C70083182C2B3C
:10065000203085007D308400F701F801F901FA01AE
:10066000CD01CE01CF01D0014A0849044804470416
:1006700003196A2B2030D1000310C30DC40DC50D22
:10068000C60DCD0DCE0DCF0DD00D4A085002031D65
:10069000532B49084F02031D532B48084E02031DDC
:1006A000532B47084D02031C642B4708CD02480812
:1006B000031C480FCE024908031C490FCF024A0809
:1006C000031C4A0FD0020314F70DF80DF90DFA0DB3
:1006D000D10B3C2B4D0880004E08813F4F08823FD4
:1006E0005008833F7A08B3007908B2007808B10057
:1006F0007708B000C70131082000DF002100300872
:100700002000E0002100B301B201B101B0010D30C1
:10071000C300200074207808E1000800111E8E2B11
:1007200023009A0020000800AA30E40001302100D4
:10073000BE003E08083C031CB92B44303E07F800BD
:100740002030FA000318FA0A7808C0007A08C100BD
:100750001D303E078400203085000318850A0008FC
:10076000C200410885004008840042088000BE0A9B
:10077000992B0B30BE003E081B3C031CDC2B0230C7
:100780003E02443EF8002030FA000318FA0A7808C6
:10079000C0007A08C1001D303E078400203085006B
:1007A0000318850A0008C20041088500400884003B
:1007B00042088000BE0ABB2B80312000AA2C7A3070
:1007C000210099002000A401A501BC0123009F1570
:1007D000A0309B0001309C00A6309E0090309D0010
:1007E00021000E168E128E1122008E1521000E1180
:1007F00022000E112100AF01AE01B301B201B1011F
:10080000B001F00123008C018D018E018F01900158
:10081000220092019101192C333440343D340034CC
:100820000E344034A034003408344034B43400343E
:100830000034043085000C30840085171200F70066
:10084000003A0319332C1200F800F81B2B2C0F3937
:10085000870012008600781B1200781F12001E000D
:10086000F70B2D2C1E2CF00133302000BD00210091
:100870008F1322008F1721000F1022000F10053058
:10088000230091009513151413082000A5000A30C9
:10089000230091009513151413082000A4002508C7
:1008A000083C03195A2C2408053C03195A2C3820FB
:1008B00049205C2C5620672021001E169E161E1310
:1008C0009E171D141E109E101E112F3023008C0029
:1008D000073090003F308D0002308F0021009116CC
:1008E000C0308B042000A020C02021003408613CCF
:1008F000031D9B2C20003921DB2156222100B4014D
:100900000A30C30020004022A020C0202100BC01EA
:100910003C08263C031C9B2C1D303C0784002030E7
:1009200085000318850A0008BE003E0820008E23BB
:100930002100BC0A882C3408693C031DBF2C200010
:100940003921DB2156222100B4010A30C3002000E6
:100950004022942B2100BD013D08193C031CBF2CF3
:1009600044303D078400203085000318850A0008C4
:10097000BE003E0820008E232100BD0AAC2C3408A6
:10098000173C031DF92CB4010A30C300200040229B
:10099000562067200B08F7008B13053023009100C9
:1009A000083093009513151555309600AA3096001F
:1009B00095149518D92C151177088B040830200050
:1009C000A5000B08F7008B130A30230091000530B7
:1009D00093009513151555309600AA30960095147E
:1009E0009518F02C151177088B0405302000A40011
:1009F00021003408183C031D332DB4010A30C30014
:100A000020004022382049200B08F7008B130530C6
:100A10002300910001309300951315155530960071
:100A2000AA30960095149518132D151177088B048C
:100A300001302000A5000B08F7008B130A302300BB
:100A40009100013093009513151555309600AA308A
:100A50009600951495182A2D151177088B040130EE
:100A60002000A4002100340B3F2DB4010A30C30044
:100A7000200040220F140130E200F0002100340871
:100A8000023C031D4D2DB4010A30C300200040225A
:100A90000F10E2010130F00021003408033C031D77
:100AA000582DB4010A30C30020004022F00121007B
:040AB000722C630041
:020000040001F9
:04000E00C43F231EAA
:00000001FF
;PIC16F1789
;CRC=1285  CREATED="03-jun.-21 17:01"
